:100000000C9446000C9465000C9465000C946500FB
:100010000C9465000C9465000C9465000C946500CC
:100020000C9465000C9465000C9465000C946500BC
:100030000C9465000C944C010C9465000C946500C4
:100040000C9465000C9465000C9465000C9465009C
:100050000C9465000C9465000C9465000C9465008C
:100060000C9465000C9465000C9465000C9465007C
:100070000C9465000C9465000C9465000C9465006C
:100080000C9465000C9465000C94650011241FBE4F
:10009000CFEFD0E4DEBFCDBF11E0A0E0B1E0E0E9FA
:1000A000F3E000E00BBF02C007900D92A231B10750
:1000B000D9F721E0A2E1B1E001C01D92AA31B20757
:1000C000E1F70E94AD010C94C6010C940000CF939F
:1000D000C82F8A3051F09091C00095FFFCCFC0939B
:1000E000C60090E080E0CF9108958DE00E94670007
:1000F000F2CF20B1209520931601809118019091A4
:10010000190184309105B0F48230910508F04DC09A
:10011000009701F1019721F52F70213089F12230EC
:10012000B1F12330D9F181E090E0909319018093EF
:10013000180116C08430910509F43EC0059781F47A
:100140002F7009F065C081E090E0909319018093D1
:10015000180106C081E090E0909319018093180186
:1001600080911801909119018330910509F45FC0C5
:100170008530910509F463C0029709F450C00895D1
:1001800082E090E09093190180931801E9CF83E019
:1001900090E09093190180931801E2CF85E090E000
:1001A0009093190180931801DBCF84E090E0909345
:1001B000190180931801D4CF2F70213069F02230BB
:1001C00091F02330B9F021111CC081E090E09093B0
:1001D000190180931801C4CF82E090E09093190137
:1001E00080931801BDCF83E090E090931901809334
:1001F0001801B6CF85E090E0909319018093180123
:10020000AFCF84E090E09093190180931801A8CFBC
:1002100085E090E09093190180931801A1CF88B1F7
:10022000893008F0ACCF88B18F5F88B9089588B164
:10023000882309F4A4CF88B1815088B9089518B8EB
:100240009ECF8BE0809381008DE790E090938900B2
:100250008093880082E080936F0010928500109256
:1002600084008091000190910101A0910201B09160
:1002700003018093120190931301A0931401B09392
:1002800015018FB780688FBF08951092810008957F
:1002900081E08093170108951F920F920FB60F927D
:1002A00011240BB60F922F933F934F935F936F934D
:1002B0007F938F939F93AF93BF93EF93FF9380911F
:1002C000120190911301A0911401B09115010197B1
:1002D000A109B1098093120190931301A093140115
:1002E000B0931501892B8A2B8B2B99F0FF91EF91FD
:1002F000BF91AF919F918F917F916F915F914F913E
:100300003F912F910F900BBE0F900FBE0F901F903B
:1003100018950E9448018091000190910101A091DF
:100320000201B09103018093120190931301A093F5
:100330001401B0931501DACF6093000170930101AD
:100340008093020190930301609312017093130153
:100350008093140190931501089511B88FEF82B91D
:1003600087B918B88AB91BB864E670E080E090E0FD
:100370000E949C010E94210102C0109217010E945C
:100380007900809117018823E1F3F7CFF894FFCF2C
:1003900001000000000000020000000067000000F3
:0203A00000005B
:00000001FF
