:100000000C9436010C9455010C9455010C94550137
:100010000C9455010C9455010C9455010C94550108
:100020000C9455010C9455010C9455010C945501F8
:100030000C9455010C9419050C9455010C94550120
:100040000C9455010C9455010C9455010C945501D8
:100050000C9455010C9455010C9455010C945501C8
:100060000C9455010C9455010C9455010C945501B8
:100070000C9455010C9455010C9455010C945501A8
:100080000C9455010C9455010C945501000000008E
:100090000000005F00000007000700147F147F14B9
:1000A000242A7F2A122313086462364955225000FD
:1000B00005030000001C2241000041221C0014081E
:1000C0003E081408083E08080050300000080808E0
:1000D0000808006060000020100804023E514945F5
:1000E0003E00427F400042615149462141454B312B
:1000F0001814127F1027454545393C4A49493001BB
:10010000710905033649494936064949291E003611
:100110003600000056360000081422410014141462
:100120001414004122140802015109063249794190
:100130003E7E1111117E7F494949363E414141229F
:100140007F4141221C7F494949417F090909013EFC
:100150004149497A7F0808087F00417F41002040DB
:10016000413F017F081422417F404040407F020C04
:10017000027F7F0408107F3E4141413E7F0909090B
:10018000063E4151215E7F091929464649494931B8
:1001900001017F01013F4040403F1F2040201F3FA1
:1001A0004038403F58773FFD561810FF080E615108
:1001B000494543007F4141000204081020004141AD
:1001C0007F0004020102044040404040000102045C
:1001D0000020545454787F484444383844444420E0
:1001E000384444487F3854545418087E0901020C9E
:1001F0005252523E7F0804047800447D4000204063
:10020000443D007F1028440000417F40007C0418DA
:1002100004787C0804047838444444387C1414146A
:1002200008081414187C7C0804040848545454200A
:10023000043F4440203C4040207C1C2040201C3C8B
:100240004030403C44281028440C5050503C4464FA
:10025000544C44000836410000007F000000413645
:1002600008001008081008000000000011241FBE3C
:10027000CFEFD0E4DEBFCDBF11E0A0E0B1E0E8E118
:10028000F6E100E00BBF02C007900D92AE38B10757
:10029000D9F723E0AEE8B1E001C01D92A13DB2075D
:1002A000E1F70E94C3080C94030B0C94000095B175
:1002B0009D7F95B9662329F095B1986095B990E036
:1002C0000EC095B1977F95B9FACF25B12F7E25B98C
:1002D00025B1206225B925B12F7D25B99F5F9830C2
:1002E00088F447E050E0491B5109282F30E002C054
:1002F000359527954A95E2F720FFE7CF25B1206194
:1003000025B9E6CF85B1826085B9089560E00E9485
:100310005701089561E00E9457010895CF93DF933C
:1003200084B1826084B984B1846084B984B1886006
:1003300084B984B1806184B984B1806284B985B1A3
:10034000846085B985B1826085B983EC99E00197B5
:10035000F1F700C0000085B18B7F85B98BE594E48F
:100360000197F1F700C0000085B1846085B985B1BF
:100370008D7F85B981E20E94860183E10E9486011A
:1003800086E00E94860182EC0E94860180E20E9443
:10039000860189E00E94860180E80E94860180E44F
:1003A0000E948601D0E0C0E0C83F91E0D90728F460
:1003B00080E00E948A012196F7CF88E00E948601A2
:1003C0008CE00E948601DF91CF91089580E80E9421
:1003D000860180E40E9486011092860310928703B2
:1003E00090E080E0883F21E0920730F4FC01E25782
:1003F000FE4F10820196F6CF0895882321F080E207
:100400000E948601089584E2FBCF262F269526952B
:10041000269590E034E5239F800D911D11244423FF
:1004200079F0677021E030E002C0220F331F6A9537
:10043000E2F7FC01E257FE4F8081822B8083089512
:10044000677021E030E002C0220F331F6A95E2F7A7
:10045000FC01E257FE4F20958081282320830895D8
:10046000EF92FF920F931F93CF93DF93E82E062F07
:10047000F12C38C06091870380918603610F41E0C1
:100480008F0D0E9405021F5FCE01880F991F880FF4
:10049000991F880F991F8C1B9D0B181719060CF5B7
:1004A000EE2D0E2C000CFF0BB0978F2D602F0E94AD
:1004B00040099F01220F331F220F331FE20FF31F4A
:1004C000E80FF11DE457FF4FE491F0E0812F0E9407
:1004D000400902C0F595E7958A95E2F7E0FFD3CF92
:1004E000C9CFF394C02FD0E0CE01880F991F880F99
:1004F000991F8C0F9D1FF816190614F410E0C4CF35
:10050000E6E8F3E0802F880F880F800F9081890F35
:100510008F5F8083843568F010928603E7E8F3E00C
:10052000802F880F880F880F801B9081890F8F5F25
:10053000808380918703803320F01092860310928D
:100540008703DF91CF911F910F91FF90EF90089556
:100550001F93CF93DF93C82FD92F162F888188231D
:1005600029F02196612F0E943002F8CFDF91CF91C0
:100570001F91089580938603609387030895CF9316
:10058000DF9380E80E94860180E40E948601D0E02B
:10059000C0E0C83F81E0D80740F4FE01E257FE4FBB
:1005A00080810E948A012196F4CFDF91CF91089536
:1005B000482F592F30E020E002C02F5F3F4F241713
:1005C00035074CF490E080E0873063E09607ACF7A5
:1005D00000000196F9CF08959BB19F7B9BB988B924
:1005E0008BB180688BB900008BB18F778BB982E0BB
:1005F00090E00E94D802089581E00E94EC020895E4
:10060000813120F481580E94EC02089581550E94A6
:10061000EC02089584E690E00E94D80288E30E94EC
:10062000EC0286E00E94EC028FE00E94EC0281E086
:100630000E94EC028AE090E00E94D80208959BB1EB
:1006400090649BB988B98BB180688BB900008BB17D
:100650008F778BB981E090E00E94D80208950F93C4
:100660001F93CF93DF93182FC62FD72F0E94FC0222
:100670008881882351F001E0010F812F0E9400033F
:1006800089910E941F03102FF3CFDF91CF911F910B
:100690000F910895CF93C82F8A3051F09091C000E8
:1006A00095FFFCCFC093C60090E080E0CF91089505
:1006B0008DE00E944A03F2CFCF93DF93C82FD92F4A
:1006C00080E090E00E94E90A80938803209721F45B
:1006D00090910001891304C0CE01DF91CF9108955C
:1006E00081E00E94000388E490E00E941F0382E002
:1006F0000E94000389E690E00E941F0383E00E94AD
:10070000000387E690E00E941F0384E00E9400033C
:1007100088E690E00E941F0386E00E94000383E5C4
:1007200090E00E941F0387E00E94000383E690E0B0
:100730000E941F0388E00E9400038FE690E00E9461
:100740001F0389E00E94000382E790E00E941F03DC
:100750008AE00E94000385E690E00E941F038CE07F
:100760000E9400038AE390E00E941F038EE00E9433
:1007700000038091880390E0C0960E941F0381E1EE
:100780000E94000383E590E00E941F0382E10E9423
:10079000000383E690E00E941F0383E10E940003B0
:1007A0008FE690E00E941F0384E10E94000382E72D
:1007B00090E00E941F0385E10E94000385E690E01F
:1007C0000E941F0387E10E9400038AE390E00E94D9
:1007D0001F0389E10E94000380918E0390E0C09680
:1007E0000E941F03809188038093000175CF0F93AF
:1007F0001F93CF93DF9300D000D000D0CDB7DEB7EA
:10080000062F172F8E839D8380918F0390919003E5
:10081000A0919103B091920389839A83AB83BC83A7
:10082000262F372F4E815D81BC01CD010E945509D5
:100830008823F1F120E030E0A90109831A839E8129
:100840009B83AD81AC8369817A818B819C810E947D
:100850005509811138C0E1E9F0E08081887080831A
:1008600028E539E344E75FE309831A83BE81BB834C
:100870008D818C8369817A818B819C810E9455094D
:1008800088233CF58FEF9FEF909399008093980019
:100890001092950010929400402F512F6E817D810F
:1008A00040938F035093900360939103709392034E
:1008B00026960FB6F894DEBF0FBECDBFDF91CF9165
:1008C0001F910F910895E1E9F0E0808183608083BA
:1008D000C7CF20E034E244EF56E409831A839E81B7
:1008E0009B83AD81AC8369817A818B819C810E94DD
:1008F000770A18162CF41092990010929800C8CF1D
:1009000020E030E040E053E409831A83BE81BB83DA
:100910008D818C8369817A818B819C810E947C0A84
:10092000262F372F482F592F60E074E284EF9AE486
:100930000E945A0969837A838B839C8369817A81B7
:100940008B819C810E94CC09462F572F4150510921
:1009500050939900409398009BCFCF93DF9300D0A2
:1009600000D000D0CDB7DEB78D839E838091CB03BE
:100970009091CC03892B29F48D819E81843091053F
:100980004CF026960FB6F894DEBF0FBECDBFDF91B8
:10099000CF910895FC01EE0FFF1FEE0FFF1FE15FE7
:1009A000FE4F80819181A281B381BC01CD010E9463
:1009B000F7038D819E810196E4CF80E480939000BF
:1009C0008BE08093910060E070E0CB010E94F70320
:1009D0000895109290001092910008958BE08093FA
:1009E00081008DE790E0909389008093880082E0F9
:1009F00080936F00109285001092840080910B010B
:100A000090910C01A0910D01B0910E01809389038A
:100A100090938A03A0938B03B0938C038FB7806865
:100A20008FBF089510928100089581E080938D0317
:100A300008951F920F920FB60F9211240BB60F92CA
:100A40002F933F934F935F936F937F938F939F93D6
:100A5000AF93BF93EF93FF938091890390918A03A3
:100A6000A0918B03B0918C030197A109B1098093E8
:100A7000890390938A03A0938B03B0938C03892BF3
:100A80008A2B8B2B99F0FF91EF91BF91AF919F91A2
:100A90008F917F916F915F914F913F912F910F9027
:100AA0000BBE0F900FBE0F901F9018950E9415055A
:100AB00080910B0190910C01A0910D01B0910E015C
:100AC0008093890390938A03A0938B03B0938C0344
:100AD000DACF60930B0170930C0180930D0190931A
:100AE0000E016093890370938A0380938B03909324
:100AF0008C030895EAE7F0E08081806E808308959A
:100B000020917800309179003093CE032093CD036B
:100B100081E090E02D3B324010F090E080E00895BD
:100B2000CF93DF9300D000D000D0CDB7DEB78D8358
:100B30009E838091C5039091C603019709F469C013
:100B40008D819E810097E9F0059721F18D819E812D
:100B500001969E838D83AD81BE81AB2BE9F010920F
:100B6000CA031092C903AD81BE81119781F1AD8195
:100B7000BE811597E9F1ED81FE81EB5FFE4F80812B
:100B800012C00E948005892B31F781E090E09E839E
:100B90008D83E5CF1E821D8281E090E09093CA0391
:100BA0008093C90380E068E2681B8AE00E94BA0271
:100BB00061E088E50E9430028D819E8126960FB605
:100BC000F894DEBF0FBECDBFDF91CF910895809125
:100BD0001F0190912001A0912101B09122018983F0
:100BE0009A83AB83BC83BC01CD010E94F703C3CFC2
:100BF0008091230190912401A0912501B0912601BB
:100C000089839A83AB83BC83BC01CD010E94F70327
:100C1000B2CF1E821D82D0CF209178003091790012
:100C20003093CE032093CD0381E090E02C3231400D
:100C300010F490E080E0089565E08DE00E94BA0233
:100C400062E084E40E94300261E089E40E943002A4
:100C500061E08EE40E94300261E08FE40E94300285
:100C600062E080E20E94300262E082E50E9430028F
:100C700061E085E50E94300261E08EE40E9430026E
:100C80006BE18CE00E94BA0261E088E791E00E948B
:100C9000A80268E284E10E94BA0261E089E50E944C
:100CA000300261E080E20E94300261E089E50E944A
:100CB000300261E089E50E94300261E080E20E943A
:100CC000300261E088E50E94300261E080E20E942B
:100CD000300261E089E50E94300208956AE087E011
:100CE0000E94BA0262E087E40E94300261E081E47F
:100CF0000E94300261E08DE40E94300261E085E4F0
:100D00000E94300262E080E20E94300262E08FE4E2
:100D10000E94300261E086E50E94300261E085E4D5
:100D20000E94300261E082E50E9430026DE181E1C3
:100D30000E94BA0261E084E891E00E94A80268E2A1
:100D40008EE10E94BA0261E088E50E94300261E013
:100D500080E20E94300261E089E50E94300208953D
:100D60006AE087E00E94BA0262E087E40E943002F3
:100D700061E081E40E94300261E08DE40E94300273
:100D800061E085E40E94300262E080E20E9430026D
:100D900062E080E50E94300261E081E40E9430025E
:100DA00061E083E50E94300261E083E50E94300249
:100DB0006DE181E10E94BA0261E084E891E00E9465
:100DC000A80268E28EE10E94BA0261E088E50E9412
:100DD000300261E080E20E94300261E089E50E9419
:100DE00030020895282F392F1216130634F4F90112
:100DF000E65CFE4F8081813059F0C9010696CC97A0
:100E000030F42F5B3E4FF90180818130C1F00895AD
:100E10002D33310594F78091C9039091CA03892B32
:100E200031F480918E038F5F80938E03E6CF109212
:100E3000CC031092CB03E1CF2FE42083089590E000
:100E400080E08C3391051CF7FC01EF5FFE4F2081A1
:100E5000222394F30196F5CFCF93DF93C82FD92F98
:100E60008091C5039091C6030197B9F0CC33D105A9
:100E700024F01092D0031092CF03CE010E94F2060C
:100E8000DD2344F0CC33D1055CF4CE010196DF9133
:100E9000CF910895CE010196FACF8AEF9FEFF7CF59
:100EA000CE01F5CFCF93DF93C82FD92F1C161D0687
:100EB00064F468E20E94BA0261E089E50E943002AF
:100EC000CE010597DF91CF9108958FEF9FEFFACF75
:100ED0000F931F93CF93DF938091C5039091C60327
:100EE000019799F0D0E0C0E00DC08E010F5F1E4F5A
:100EF000F8018081082E000C990B0E945207F8011E
:100F000080832196CC33D10584F390E080E0DF919B
:100F1000CF911F910F910895CF93DF93C82FD92FB1
:100F200010928E0360E080E090E00E94F10A81E080
:100F300090E09093C6038093C5039093CC03809375
:100F4000CB039093D0038093CF032197B1F081E03E
:100F500090E09093CA038093C90360E070E0CB01F6
:100F60000E94F70380E0853058F4E82FF0E0EF5F4F
:100F7000FE4F9FEF90838F5FF6CF10928E03E7CFE7
:100F8000E3E9F3E081E090E0A0E0B0E082839383C6
:100F9000A483B58386839783A087B187118210824B
:100FA0002BE238E03387228786879787A08BB18B27
:100FB000828B938BA48BB58B1586148620E935E044
:100FC000378B268B828F938FA48FB58F868F978FC9
:100FD000A0A3B1A3118E108E2CE533E033A322A37E
:100FE00086A397A3A0A7B1A782A793A7A4A7B5A7F5
:100FF00015A214A22DEA34E037A726A742E050E05C
:1010000060E070E042AB53AB64AB75AB46AB57AB43
:1010100060AF71AF2AEF3FEF31AB20AB28E637E08E
:1010200033AF22AF8093D1039093D203A093D30325
:10103000B093D4038093D5039093D603A093D703A2
:10104000B093D80315AE14AE3093DA032093D903CE
:10105000DF91CF910895CF93DF93C82FD92F86B119
:10106000C730D105B8F5FE01EB5FF44F0C944C0985
:101070000E948005892B71F5C1E0D0E081E080936A
:101080008E038C2F9D2F4FC00E948005892B11F558
:10109000C2E0D0E02AC08091CB039091CC03892B91
:1010A00009F460C08091CF039091D003892B91F413
:1010B000C4E0D0E081E090E09093C6038093C50344
:1010C0000E94B0068C2F9D2F2EC00E948005892B78
:1010D00009F453C0C330D10509F446C054F5C130FA
:1010E000D10561F2C230D105C1F482E080938E0354
:1010F0001092C6031092C5038C2F9D2F14C00E941E
:101100008005892B39F785E090E00DC00E948005AD
:10111000892BB1F1C6E0D0E013C0209739F40E94CA
:101120001C068C2F9D2FDF91CF9108958C2F9D2F22
:10113000FACFC430D10509F4BDCFC630D10561F472
:1011400083E080938E0381E090E00E948C070E94F0
:101150001C068C2F9D2FE7CF8C2F9D2FE4CFD0E046
:10116000C0E0DDCFC3E0D0E01092CC031092CB03FF
:101170000E946E068C2F9D2FD6CF85E090E0D3CFB6
:101180008C2F9D2FD0CF11B812B88FEF84B915B81E
:1011900087B918B88AB91BB80E947A050E940A0359
:1011A0000E948E010E94DD0481E090E00E948C0785
:1011B00062C041E060E08C2F0E94050241E06FE2D6
:1011C0008C2F0E9405022196C335D10594F30E940D
:1011D000BF0210E01CC0FE01EE0FFF1FDF01AC0FCD
:1011E000BD1FAA0FBB1FAA0FBB1FAD56BC4FFD01F1
:1011F00046815781608571854F5F5F4F6F4F7F4F8D
:1012000016964D935D936D937C9319971F5F1430E1
:1012100050F5C12FD0E0FE01EE0FFF1FEC0FFD1FB8
:10122000EE0FFF1FEE0FFF1FED56FC4F468157815B
:101230006085718582819381A481B58148175907A2
:101240006A077B0740F27F01DF010284F385E02D0E
:101250008D919C910995F701918380831682178265
:1012600010861186B8CF0E94BF0280918D0388231B
:10127000E1F310928D030E94E601D0E0C0E0A4CF1C
:10128000991B79E004C0991F961708F0961B881FD8
:101290007A95C9F780950895EE0FFF1F0024001C72
:1012A0000BBE0790F691E02D09940E94020A08F403
:1012B00081E008950E946E090C943D0A0E94360A4E
:1012C00058F00E942F0A40F029F45F3F29F00C9457
:1012D000260A51110C94710A0C942C0A0E944E0A91
:1012E00068F39923B1F3552391F3951B550BBB2755
:1012F000AA2762177307840738F09F5F5F4F220F9A
:10130000331F441FAA1FA9F335D00E2E3AF0E0E890
:1013100032D091505040E695001CCAF72BD0FE2FDA
:1013200029D0660F771F881FBB1F2617370748076E
:10133000AB07B0E809F0BB0B802DBF01FF27935826
:101340005F4F3AF09E3F510578F00C94260A0C94BA
:10135000710A5F3FE4F3983ED4F3869577956795DD
:10136000B795F7959F5FC9F7880F911D969587955B
:1013700097F90895E1E0660F771F881FBB1F62177A
:1013800073078407BA0720F0621B730B840BBA0B38
:10139000EE1F88F7E09508950E94D3096894B11173
:1013A0000C94710A08950E94560A88F09F5798F08D
:1013B000B92F9927B751B0F0E1F0660F771F881F5A
:1013C000991F1AF0BA95C9F714C0B13091F00E9474
:1013D000700AB1E008950C94700A672F782F88275F
:1013E000B85F39F0B93FCCF3869577956795B3959B
:1013F000D9F73EF490958095709561957F4F8F4F0A
:101400009F4F0895990F0008550FAA0BE0E8FEEFD3
:1014100016161706E807F907C0F012161306E407B8
:10142000F50798F0621B730B840B950B39F40A26B1
:1014300061F0232B242B252B21F408950A2609F48F
:10144000A140A6958FEF811D811D089597F99F6793
:1014500080E870E060E008959FEF80EC089500243C
:101460000A941616170618060906089500240A9409
:1014700012161306140605060895092E0394000C8F
:1014800011F4882352F0BB0F40F4BF2B11F460FF1E
:1014900004C06F5F7F4F8F4F9F4F089557FD905847
:1014A000440F551F59F05F3F71F04795880F97FB28
:1014B000991F61F09F3F79F08795089512161306E2
:1014C0001406551FF2CF4695F1DF08C01616170611
:1014D0001806991FF1CF8695710561050894089546
:1014E000E894BB2766277727CB0197F908950E94D8
:1014F000020A08F48FEF08950E948F0A0C943D0AA7
:101500000E942F0A38F00E94360A20F0952311F02D
:101510000C94260A0C942C0A11240C94710A0E9433
:101520004E0A70F3959FC1F3950F50E0551F629FCF
:10153000F001729FBB27F00DB11D639FAA27F00D2C
:10154000B11DAA1F649F6627B00DA11D661F829F53
:101550002227B00DA11D621F739FB00DA11D621F38
:10156000839FA00D611D221F749F3327A00D611D55
:10157000231F849F600D211D822F762F6A2F112437
:101580009F5750409AF0F1F088234AF0EE0FFF1F6A
:10159000BB1F661F771F881F91505040A9F79E3FC1
:1015A000510580F00C94260A0C94710A5F3FE4F315
:1015B000983ED4F3869577956795B795F795E79517
:1015C0009F5FC1F7FE2B880F911D9695879597F920
:1015D0000895F999FECF92BD81BDF89A992780B5FB
:1015E0000895262FF999FECF92BD81BDF89A0197F3
:1015F00000B4021639F01FBA20BD0FB6F894FA9A5B
:10160000F99A0FBE0895F894FFCF380844084B08A4
:0816100065087F088608AF0899
:1016180064FFFFFFFFFF050A0F0A05010000000035
:1016280000C443B8FEB843719DAE43A4D0A443A4FC
:10163800D082435CCF024300000002000000004A51
:1016480003000000004F2C01BC0204000100000050
:101658000001000000000000000001000000000080
:101668000001000000000000000100000000000070
:10167800010000000100000001000000000000005F
:10168800010000000001003C555020746F20737465
:0E16980061727400524553544152543F200079
:00000001FF
