:100000000C9436010C9455010C9455010C94550137
:100010000C9455010C9455010C9455010C94550108
:100020000C9455010C9455010C9455010C945501F8
:100030000C9455010C9426050C9455010C94550113
:100040000C9455010C9455010C9455010C945501D8
:100050000C9455010C9455010C9455010C945501C8
:100060000C9455010C9455010C9455010C945501B8
:100070000C9455010C9455010C9455010C945501A8
:100080000C9455010C9455010C945501000000008E
:100090000000005F00000007000700147F147F14B9
:1000A000242A7F2A122313086462364955225000FD
:1000B00005030000001C2241000041221C0014081E
:1000C0003E081408083E08080050300000080808E0
:1000D0000808006060000020100804023E514945F5
:1000E0003E00427F400042615149462141454B312B
:1000F0001814127F1027454545393C4A49493001BB
:10010000710905033649494936064949291E003611
:100110003600000056360000081422410014141462
:100120001414004122140802015109063249794190
:100130003E7E1111117E7F494949363E414141229F
:100140007F4141221C7F494949417F090909013EFC
:100150004149497A7F0808087F00417F41002040DB
:10016000413F017F081422417F404040407F020C04
:10017000027F7F0408107F3E4141413E7F0909090B
:10018000063E4151215E7F091929464649494931B8
:1001900001017F01013F4040403F1F2040201F3FA1
:1001A0004038403F58773FFD561810FF080E615108
:1001B000494543007F4141000204081020004141AD
:1001C0007F0004020102044040404040000102045C
:1001D0000020545454787F484444383844444420E0
:1001E000384444487F3854545418087E0901020C9E
:1001F0005252523E7F0804047800447D4000204063
:10020000443D007F1028440000417F40007C0418DA
:1002100004787C0804047838444444387C1414146A
:1002200008081414187C7C0804040848545454200A
:10023000043F4440203C4040207C1C2040201C3C8B
:100240004030403C44281028440C5050503C4464FA
:10025000544C44000836410000007F000000413645
:1002600008001008081008000000000011241FBE3C
:10027000CFEFD0E4DEBFCDBF11E0A0E0B1E0EAEC0B
:10028000F3E100E00BBF02C007900D92A235B10769
:10029000D9F723E0A2E5B1E001C01D92A439B2076D
:1002A000E1F70E9455070C94E3090C94000095B106
:1002B0009D7F95B9662329F095B1986095B990E036
:1002C0000EC095B1977F95B9FACF25B12F7E25B98C
:1002D00025B1206225B925B12F7D25B99F5F9830C2
:1002E00088F447E050E0491B5109282F30E002C054
:1002F000359527954A95E2F720FFE7CF25B1206194
:1003000025B9E6CF85B1826085B9089560E00E9485
:100310005701089561E00E9457010895CF93DF933C
:1003200084B1826084B984B1846084B984B1886006
:1003300084B984B1806184B984B1806284B985B1A3
:10034000846085B985B1826085B983EC99E00197B5
:10035000F1F700C0000085B18B7F85B98BE594E48F
:100360000197F1F700C0000085B1846085B985B1BF
:100370008D7F85B981E20E94860183E10E9486011A
:1003800086E00E94860182EC0E94860180E20E9443
:10039000860189E00E94860180E80E94860180E44F
:1003A0000E948601D0E0C0E0C83F91E0D90728F460
:1003B00080E00E948A012196F7CF88E00E948601A2
:1003C0008CE00E948601DF91CF91089580E80E9421
:1003D000860180E40E94860110924A0310924B032A
:1003E00090E080E0883F21E0920730F4FC01EE5A73
:1003F000FE4F10820196F6CF0895882321F080E207
:100400000E948601089584E2FBCF262F269526952B
:10041000269590E034E5239F800D911D11244423FF
:1004200079F0677021E030E002C0220F331F6A9537
:10043000E2F7FC01EE5AFE4F8081822B8083089503
:10044000677021E030E002C0220F331F6A95E2F7A7
:10045000FC01EE5AFE4F20958081282320830895C9
:10046000EF92FF920F931F93CF93DF93E82E062F07
:10047000F12C38C060914B0380914A03610F41E039
:100480008F0D0E9405021F5FCE01880F991F880FF4
:10049000991F880F991F8C1B9D0B181719060CF5B7
:1004A000EE2D0E2C000CFF0BB0978F2D602F0E94AD
:1004B00029089F01220F331F220F331FE20FF31F62
:1004C000E80FF11DE457FF4FE491F0E0812F0E9407
:1004D000290802C0F595E7958A95E2F7E0FFD3CFAA
:1004E000C9CFF394C02FD0E0CE01880F991F880F99
:1004F000991F8C0F9D1FF816190614F410E0C4CF35
:10050000EAE4F3E0802F880F880F800F9081890F35
:100510008F5F8083843568F010924A03EBE4F3E048
:10052000802F880F880F880F801B9081890F8F5F25
:10053000808380914B03803320F010924A03109205
:100540004B03DF91CF911F910F91FF90EF90089592
:100550001F93CF93DF93C82FD92F162F888188231D
:1005600029F02196612F0E943002F8CFDF91CF91C0
:100570001F91089580934A0360934B030895CF938E
:10058000DF9380E80E94860180E40E948601D0E02B
:10059000C0E0C83F81E0D80740F4FE01EE5AFE4FAC
:1005A00080810E948A012196F4CFDF91CF91089536
:1005B000482F592F30E020E002C02F5F3F4F241713
:1005C00035074CF490E080E0873063E09607ACF7A5
:1005D00000000196F9CF08959BB19F7B9BB988B924
:1005E0008BB180688BB900008BB18F778BB982E0BB
:1005F00090E00E94D802089581E00E94EC020895E4
:10060000813120F481580E94EC02089581550E94A6
:10061000EC02089584E690E00E94D80288E30E94EC
:10062000EC0286E00E94EC028FE00E94EC0281E086
:100630000E94EC028AE090E00E94D80208959BB1EB
:1006400090649BB988B98BB180688BB900008BB17D
:100650008F778BB981E090E00E94D80208950F93C4
:100660001F93CF93DF93182FC62FD72F0E94FC0222
:100670008881882351F001E0010F812F0E9400033F
:1006800089910E941F03102FF3CFDF91CF911F910B
:100690000F910895CF93C82F8A3051F09091C000E8
:1006A00095FFFCCFC093C60090E080E0CF91089505
:1006B0008DE00E944A03F2CF1F93CF93DF93C82FA0
:1006C000D92F81E090E00E94C909182F80934D0333
:1006D00080E090E00E94C90980934C03209721F4A8
:1006E00080910001181305C0CE01DF91CF911F91B9
:1006F000089581E00E94000388E490E00E941F03B7
:1007000082E00E94000389E690E00E941F0383E0DC
:100710000E94000387E690E00E941F0384E00E948D
:10072000000388E690E00E941F0386E00E94000319
:1007300083E590E00E941F0387E00E94000383E6A8
:1007400090E00E941F0388E00E9400038FE690E083
:100750000E941F0389E00E94000382E790E00E944C
:100760001F038AE00E94000385E690E00E941F03B9
:100770008CE00E9400038AE390E00E941F038EE059
:100780000E94000380914C0390E0C0960E941F03DA
:1007900081E10E94000383E590E00E941F0382E153
:1007A0000E94000383E690E00E941F0383E10E9401
:1007B00000038FE690E00E941F0384E10E94000383
:1007C00082E790E00E941F0385E10E94000385E616
:1007D00090E00E941F0387E10E9400038AE390E0FB
:1007E0000E941F0389E10E94000380914D0390E065
:1007F000C0960E941F0380914D038093000174CF27
:100800000F931F93CF93DF9300D000D000D0CDB7CC
:10081000DEB7062F172F8E839D83809183039091DF
:100820008403A0918503B091860389839A83AB8367
:10083000BC83262F372F4E815D81BC01CD010E94E4
:1008400035088823F1F120E030E0A90109831A83FB
:100850009E819B83AD81AC8369817A818B819C81F0
:100860000E943508811138C0E1E9F0E0808188708C
:10087000808328E539E344E75FE309831A83BE8177
:10088000BB838D818C8369817A818B819C810E945D
:10089000350888233CF58FEF9FEF90939900809364
:1008A00098001092950010929400402F512F6E8165
:1008B0007D814093830350938403609385037093F9
:1008C000860326960FB6F894DEBF0FBECDBFDF912C
:1008D000CF911F910F910895E1E9F0E0808183604D
:1008E0008083C7CF20E034E244EF56E409831A83C3
:1008F0009E819B83AD81AC8369817A818B819C8150
:100900000E94570918162CF4109299001092980022
:10091000C8CF20E030E040E053E409831A83BE8171
:10092000BB838D818C8369817A818B819C810E94BC
:100930005C09262F372F482F592F60E074E284EF8F
:100940009AE40E943A0869837A838B839C83698145
:100950007A818B819C810E94AC08462F572F415091
:10096000510950939900409398009BCFCF93DF9308
:1009700000D000D000D0CDB7DEB78D839E838091AC
:100980008B0390918C03892B29F48D819E81843077
:1009900091055CF08D819E8126960FB6F894DEBF9E
:1009A0000FBECDBFDF91CF910895FC01EE0FFF1F69
:1009B000EE0FFF1FE65FFE4F80819181A281B38120
:1009C000BC01CD010E940004AD81BE811196BE83A1
:1009D000AD83E0CF80E4809390008BE08093910022
:1009E00060E070E0CB010E94000408951092900036
:1009F0001092910008958BE0809381008DE790E044
:100A0000909389008093880082E080936F00109219
:100A10008500109284008091060190910701A091B9
:100A20000801B091090180934E0390934F03A09366
:100A30005003B09351038FB780688FBF0895109211
:100A40008100089581E08093520308951F920F92D0
:100A50000FB60F9211240BB60F922F933F934F9323
:100A60005F936F937F938F939F93AF93BF93EF9316
:100A7000FF9380914E0390914F03A0915003B0914A
:100A800051030197A109B10980934E0390934F033D
:100A9000A0935003B0935103892B8A2B8B2B99F091
:100AA000FF91EF91BF91AF919F918F917F916F9146
:100AB0005F914F913F912F910F900BBE0F900FBE02
:100AC0000F901F9018950E94220580910601909129
:100AD0000701A0910801B091090180934E03909302
:100AE0004F03A0935003B0935103DACF60930601F4
:100AF00070930701809308019093090160934E035E
:100B000070934F0380935003909351030895EAE745
:100B1000F0E08081806E808308952091780030918C
:100B20007900309393032093920381E090E02D3B72
:100B3000324010F090E080E00895CF93DF9300D032
:100B400000D000D0CDB7DEB789839A838091890326
:100B500090918A03019709F46DC089819A81009769
:100B600041F0059741F1A981BA811196BE83AD8309
:100B70000CC00E948D05A1E0A983892B09F0198280
:100B80009981892F90E09E838D838D819E81892B11
:100B9000A1F010928E0310928D03AD81BE8111974A
:100BA00039F1AD81BE811597A1F1ED81FE81E05053
:100BB000FF4F808109C01E821D8281E090E09093EA
:100BC0008E0380938D0380E067E2681B8AE00E94B9
:100BD000BA0261E088E50E9430028D819E812696EE
:100BE0000FB6F894DEBF0FBECDBFDF91CF91089551
:100BF00080911A0190911B01A0911C01B0911D01DF
:100C000089839A83AB83BC83BC01CD010E9400041D
:100C1000CCCF80911E0190911F01A0912001B09135
:100C2000210189839A83AB83BC83BC01CD010E94DF
:100C30000004BBCF1E821D82D0CF2091780030915E
:100C40007900309393032093920381E090E02C325B
:100C5000314010F490E080E0089565E08DE00E945E
:100C6000BA0262E084E40E94300261E089E40E94FA
:100C7000300261E08EE40E94300261E08FE40E9465
:100C8000300262E080E20E94300262E082E50E946F
:100C9000300261E085E50E94300261E08EE40E944E
:100CA00030026BE18CE00E94BA0261E08CE391E0DB
:100CB0000E94A80268E284E10E94BA0261E089E52C
:100CC0000E94300261E080E20E94300261E089E52A
:100CD0000E94300261E089E50E94300261E080E21A
:100CE0000E94300261E088E50E94300261E080E20B
:100CF0000E94300261E089E50E94300208956AE0B6
:100D00008AE00E94BA0262E087E40E94300261E059
:100D100081E40E94300261E08DE40E94300261E0D3
:100D200085E40E94300262E080E20E94300262E0CC
:100D30008FE40E94300261E086E50E94300261E0AB
:100D400085E40E94300261E082E50E94300263E2A5
:100D50008AE00E94BA0261E088E491E00E94A80261
:100D600061E088E50E94300261E080E20E9430028A
:100D700061E089E50E94300208951F93CF93DF93CD
:100D8000C82FD92F86B1C330D10509F459C064F5F5
:100D9000C130D10509F44DC0C230D10549F480916C
:100DA0008B0390918C03892BC1F413E0C0E04EC0FB
:100DB000209739F40E948D05C1E0892B09F0C0E02D
:100DC000D0E0C330D10509F464C00CF057C02097BF
:100DD00099F0C230D10509F04EC010928A031092EA
:100DE00089031C2FCD2F3AC0C430D105E9F1C5309D
:100DF000D10539F7D0E0C0E00E942D0660E081E027
:100E000090E00E94D10960E080E090E00E94D1096A
:100E100081E090E090938A038093890390938C0300
:100E200080938B0390938E0380938D031C2FCD2F83
:100E300015C00E948D05892B79F1C2E0D0E0CDCF9D
:100E40000E948D05892B59F11C2FCD2F81E090E058
:100E500090938A03809389030E947F06812F9C2FA1
:100E6000DF91CF911F9108950E948D05892BD1F0BC
:100E7000C5E0D0E006C01C2FCD2FF0CFC530D10586
:100E800029F40E942D061C2FCD2FE8CF1C2FCD2F2B
:100E9000E5CF1C2FCD2FDACF1C2FCD2FDFCF14E0C5
:100EA000C0E0DCCF1C2FCD2FD9CFCDB7DEB7289730
:100EB0000FB6F894DEBF0FBECDBF11B812B88FEFDA
:100EC00084B915B887B918B88AB91BB888E0E0E3C7
:100ED000F1E0DE01119601900D928A95E1F7E7E7C6
:100EE000F3E01182108284E690E0A0E0B0E082831B
:100EF0009383A483B58386839783A087B1878DEB83
:100F000096E093878287EBE6F3E01182108282E31A
:100F100090E0A0E0B0E082839383A483B5838683CE
:100F20009783A087B1872DE935E033872287EFE5E6
:100F3000F3E01182108282839383A483B583868336
:100F40009783A087B1872CE533E033872287E3E5D9
:100F5000F3E01182108282839383A483B583868316
:100F60009783A087B18786EB94E0938782870E945E
:100F700087050E940A030E948E010E94EA040E94D3
:100F80002D0610E000E007C041E06FE2802F0E94D4
:100F900005020F5F1F4F00351105B4F30E94BF0219
:100FA00081E090E090938A038093890390938C036F
:100FB00080938B0390938E0380938D0346C0F8013A
:100FC00086819781A085B185C296A11DB11D8683BA
:100FD0009783A087B187F394F3E0FF1570F1EF2DAD
:100FE000F0E0EE0FFF1F81E090E08C0F9D1FE80FF7
:100FF000F91F00811181D80116964D915D916D9177
:101000007C91199712968D919D910D90BC91A02D78
:10101000481759076A077B0790F2D8011A96ED9195
:10102000FC911B978D919C910995F8019183808388
:101030001682178210861186C2CF809152038823B0
:10104000E1F3109252030E94BF020E94E601F12CCC
:10105000C3CF991B79E004C0991F961708F0961B1F
:10106000881F7A95C9F7809508950E94E20808F4D0
:1010700081E008950E944E080C941D090E941609F3
:1010800058F00E940F0940F029F45F3F29F00C94BA
:10109000060951110C9451090C940C090E942E0957
:1010A00068F39923B1F3552391F3951B550BBB2797
:1010B000AA2762177307840738F09F5F5F4F220FDC
:1010C000331F441FAA1FA9F335D00E2E3AF0E0E8D3
:1010D00032D091505040E695001CCAF72BD0FE2F1D
:1010E00029D0660F771F881FBB1F261737074807B1
:1010F000AB07B0E809F0BB0B802DBF01FF27935869
:101100005F4F3AF09E3F510578F00C9406090C941D
:1011100051095F3FE4F3983ED4F386957795679540
:10112000B795F7959F5FC9F7880F911D969587959D
:1011300097F90895E1E0660F771F881FBB1F6217BC
:1011400073078407BA0720F0621B730B840BBA0B7A
:10115000EE1F88F7E09508950E94B3086894B111D6
:101160000C94510908950E94360988F09F5798F011
:10117000B92F9927B751B0F0E1F0660F771F881F9C
:10118000991F1AF0BA95C9F714C0B13091F00E94B6
:101190005009B1E008950C945009672F782F8827E3
:1011A000B85F39F0B93FCCF3869577956795B395DD
:1011B000D9F73EF490958095709561957F4F8F4F4C
:1011C0009F4F0895990F0008550FAA0BE0E8FEEF16
:1011D00016161706E807F907C0F012161306E407FB
:1011E000F50798F0621B730B840B950B39F40A26F4
:1011F00061F0232B242B252B21F408950A2609F4D2
:10120000A140A6958FEF811D811D089597F99F67D5
:1012100080E870E060E008959FEF80EC089500247E
:101220000A941616170618060906089500240A944B
:1012300012161306140605060895092E0394000CD1
:1012400011F4882352F0BB0F40F4BF2B11F460FF60
:1012500004C06F5F7F4F8F4F9F4F089557FD905889
:10126000440F551F59F05F3F71F04795880F97FB6A
:10127000991F61F09F3F79F0879508951216130624
:101280001406551FF2CF4695F1DF08C01616170653
:101290001806991FF1CF8695710561050894089588
:1012A000E894BB2766277727CB0197F908950E941A
:1012B000E20808F48FEF08950E946F090C941D094D
:1012C0000E940F0938F00E94160920F0952311F0B2
:1012D0000C9406090C940C0911240C9451090E94D9
:1012E0002E0970F3959FC1F3950F50E0551F629F33
:1012F000F001729FBB27F00DB11D639FAA27F00D6F
:10130000B11DAA1F649F6627B00DA11D661F829F95
:101310002227B00DA11D621F739FB00DA11D621F7A
:10132000839FA00D611D221F749F3327A00D611D97
:10133000231F849F600D211D822F762F6A2F112479
:101340009F5750409AF0F1F088234AF0EE0FFF1FAC
:10135000BB1F661F771F881F91505040A9F79E3F03
:10136000510580F00C9406090C9451095F3FE4F399
:10137000983ED4F3869577956795B795F795E79559
:101380009F5FC1F7FE2B880F911D9695879597F962
:101390000895F999FECF92BD81BDF89A992780B53D
:1013A0000895262FF999FECF92BD81BDF89A019735
:1013B00000B4021639F01FBA20BD0FB6F894FA9A9D
:0A13C000F99A0FBE0895F894FFCFCC
:1013CA0064050A0F0A05010000000000C443B8FEC4
:1013DA00B843719DAE43A4D0A443A4D082435CCF4A
:1013EA00024300000002000000004A03000000005F
:1013FA0077036B035F0353032C01BC02555020741F
:10140A006F20737461727400524553544152543FB1
:02141A002000B0
:00000001FF
