:100000000C9436010C9455010C9455010C94550137
:100010000C9455010C9455010C9455010C94550108
:100020000C9455010C9455010C9455010C945501F8
:100030000C9455010C942B050C9455010C9455010E
:100040000C9455010C9455010C9455010C945501D8
:100050000C9455010C9455010C9455010C945501C8
:100060000C9455010C9455010C9455010C945501B8
:100070000C9455010C9455010C9455010C945501A8
:100080000C9455010C9455010C945501000000008E
:100090000000005F00000007000700147F147F14B9
:1000A000242A7F2A122313086462364955225000FD
:1000B00005030000001C2241000041221C0014081E
:1000C0003E081408083E08080050300000080808E0
:1000D0000808006060000020100804023E514945F5
:1000E0003E00427F400042615149462141454B312B
:1000F0001814127F1027454545393C4A49493001BB
:10010000710905033649494936064949291E003611
:100110003600000056360000081422410014141462
:100120001414004122140802015109063249794190
:100130003E7E1111117E7F494949363E414141229F
:100140007F4141221C7F494949417F090909013EFC
:100150004149497A7F0808087F00417F41002040DB
:10016000413F017F081422417F404040407F020C04
:10017000027F7F0408107F3E4141413E7F0909090B
:10018000063E4151215E7F091929464649494931B8
:1001900001017F01013F4040403F1F2040201F3FA1
:1001A0004038403F58773FFD561810FF080E615108
:1001B000494543007F4141000204081020004141AD
:1001C0007F0004020102044040404040000102045C
:1001D0000020545454787F484444383844444420E0
:1001E000384444487F3854545418087E0901020C9E
:1001F0005252523E7F0804047800447D4000204063
:10020000443D007F1028440000417F40007C0418DA
:1002100004787C0804047838444444387C1414146A
:1002200008081414187C7C0804040848545454200A
:10023000043F4440203C4040207C1C2040201C3C8B
:100240004030403C44281028440C5050503C4464FA
:10025000544C44000836410000007F000000413645
:1002600008001008081008000000000011241FBE3C
:10027000CFEFD0E4DEBFCDBF11E0A0E0B1E0E0E51C
:10028000F6E100E00BBF02C007900D92AC39B10758
:10029000D9F724E0ACE9B1E001C01D92A732B20762
:1002A000E1F70E9468080C941F0B0C94000095B1B4
:1002B0009D7F95B9662329F095B1986095B990E036
:1002C0000EC095B1977F95B9FACF25B12F7E25B98C
:1002D00025B1206225B925B12F7D25B99F5F9830C2
:1002E00088F447E050E0491B5109282F30E002C054
:1002F000359527954A95E2F720FFE7CF25B1206194
:1003000025B9E6CF85B1826085B9089560E00E9485
:100310005701089561E00E9457010895CF93DF933C
:1003200084B1826084B984B1846084B984B1886006
:1003300084B984B1806184B984B1806284B985B1A3
:10034000846085B985B1826085B983EC99E00197B5
:10035000F1F700C0000085B18B7F85B98BE594E48F
:100360000197F1F700C0000085B1846085B985B1BF
:100370008D7F85B981E20E94860183E10E9486011A
:1003800086E00E94860182EC0E94860180E20E9443
:10039000860189E00E94860180E80E94860180E44F
:1003A0000E948601D0E0C0E0C83F91E0D90728F460
:1003B00080E00E948A012196F7CF88E00E948601A2
:1003C0008CE00E948601DF91CF91089580E80E9421
:1003D000860180E40E948601109294031092950396
:1003E00090E080E0883F21E0920730F4FC01E45681
:1003F000FE4F10820196F6CF0895882321F080E207
:100400000E948601089584E2FBCF262F269526952B
:10041000269590E034E5239F800D911D11244423FF
:1004200079F0677021E030E002C0220F331F6A9537
:10043000E2F7FC01E456FE4F8081822B8083089511
:10044000677021E030E002C0220F331F6A95E2F7A7
:10045000FC01E456FE4F20958081282320830895D7
:10046000EF92FF920F931F93CF93DF93E82E062F07
:10047000F12C38C06091950380919403610F41E0A5
:100480008F0D0E9405021F5FCE01880F991F880FF4
:10049000991F880F991F8C1B9D0B181719060CF5B7
:1004A000EE2D0E2C000CFF0BB0978F2D602F0E94AD
:1004B0005C099F01220F331F220F331FE20FF31F2E
:1004C000E80FF11DE457FF4FE491F0E0812F0E9407
:1004D0005C0902C0F595E7958A95E2F7E0FFD3CF76
:1004E000C9CFF394C02FD0E0CE01880F991F880F99
:1004F000991F8C0F9D1FF816190614F410E0C4CF35
:10050000E4E9F3E0802F880F880F800F9081890F36
:100510008F5F8083843568F010929403E5E9F3E0FF
:10052000802F880F880F880F801B9081890F8F5F25
:10053000808380919503803320F010929403109271
:100540009503DF91CF911F910F91FF90EF90089548
:100550001F93CF93DF93C82FD92F162F888188231D
:1005600029F02196612F0E943002F8CFDF91CF91C0
:100570001F91089580939403609395030895CF93FA
:10058000DF9380E80E94860180E40E948601D0E02B
:10059000C0E0C83F81E0D80740F4FE01E456FE4FBA
:1005A00080810E948A012196F4CFDF91CF91089536
:1005B000482F592F30E020E002C02F5F3F4F241713
:1005C00035074CF490E080E0873063E09607ACF7A5
:1005D00000000196F9CF08959BB19F7B9BB988B924
:1005E0008BB180688BB900008BB18F778BB982E0BB
:1005F00090E00E94D802089581E00E94EC020895E4
:10060000813120F481580E94EC02089581550E94A6
:10061000EC02089584E690E00E94D80288E30E94EC
:10062000EC0286E00E94EC028FE00E94EC0281E086
:100630000E94EC028AE090E00E94D80208959BB1EB
:1006400090649BB988B98BB180688BB900008BB17D
:100650008F778BB981E090E00E94D80208950F93C4
:100660001F93CF93DF93182FC62FD72F0E94FC0222
:100670008881882351F001E0010F812F0E9400033F
:1006800089910E941F03102FF3CFDF91CF911F910B
:100690000F910895CF93C82F8A3051F09091C000E8
:1006A00095FFFCCFC093C60090E080E0CF91089505
:1006B0008DE00E944A03F2CFCF93DF93C82FD92F4A
:1006C00080E090E00E94050B80939603209731F420
:1006D00090919C0380910001981304C0CE01DF919A
:1006E000CF91089581E00E94000388E490E00E9489
:1006F0001F0382E00E94000389E690E00E941F032E
:1007000083E00E94000387E690E00E941F0384E0DC
:100710000E94000388E690E00E941F0386E00E948A
:10072000000383E590E00E941F0387E00E9400031E
:1007300083E690E00E941F0388E00E9400038FE69A
:1007400090E00E941F0389E00E94000382E790E08E
:100750000E941F038AE00E94000385E690E00E9449
:100760001F038CE00E9400038AE390E00E941F03B5
:100770008EE00E9400038091960360919C0386178F
:1007800008F442C080E090E00E94050B809396033D
:1007900090E0C0960E941F0381E10E94000383E560
:1007A00090E00E941F0382E10E94000383E690E034
:1007B0000E941F0383E10E9400038FE690E00E94E5
:1007C0001F0384E10E94000382E790E00E941F0360
:1007D00085E10E94000385E690E00E941F0387E107
:1007E0000E9400038AE390E00E941F0389E10E94B7
:1007F000000380919C0390E0C0960E941F038091AB
:100800009C03809300016ACF80E090E00E940D0B72
:10081000B9CF0F931F93CF93DF9300D000D000D0B8
:10082000CDB7DEB7062F172F8E839D838091E5030A
:100830009091E603A091E703B091E80389839A833E
:10084000AB83BC83262F372F4E815D81BC01CD0148
:100850000E9471098823F1F120E030E0A9010983A9
:100860001A839E819B83AD81AC8369817A818B8160
:100870009C810E947109811138C0E1E9F0E080811A
:100880008870808328E539E344E75FE309831A83AE
:10089000BE81BB838D818C8369817A818B819C81B0
:1008A0000E94710988233CF58FEF9FEF9093990088
:1008B000809398001092950010929400402F512F31
:1008C0006E817D814093E5035093E6036093E703D7
:1008D0007093E80326960FB6F894DEBF0FBECDBF27
:1008E000DF91CF911F910F910895E1E9F0E08081B0
:1008F00083608083C7CF20E034E244EF56E409836D
:100900001A839E819B83AD81AC8369817A818B81BF
:100910009C810E94930A18162CF410929900109250
:100920009800C8CF20E030E040E053E409831A8308
:10093000BE81BB838D818C8369817A818B819C810F
:100940000E94980A262F372F482F592F60E074E213
:1009500084EF9AE40E94760969837A838B839C836F
:1009600069817A818B819C810E94E809462F572FEB
:100970004150510950939900409398009BCFCF93D9
:10098000DF9300D000D000D0CDB7DEB78D839E833B
:100990008091210490912204892B29F48D819E81DC
:1009A000873091054CF026960FB6F894DEBF0FBE47
:1009B000CDBFDF91CF910895FC01EE0FFF1FEE0F29
:1009C000FF1FE65FFE4F80819181A281B381BC0150
:1009D000CD010E9409048D819E810196E4CF80E4BF
:1009E000809390008BE08093910060E070E0CB01F9
:1009F0000E940904089510929000109291000895A9
:100A00008BE0809381008DE790E090938900809344
:100A1000880082E080936F0010928500109284001D
:100A20008091060190910701A0910801B091090100
:100A30008093970390939803A0939903B0939A039C
:100A40008FB780688FBF089510928100089581E06C
:100A500080939B0308951F920F920FB60F9211245B
:100A60000BB60F922F933F934F935F936F937F93A8
:100A70008F939F93AF93BF93EF93FF9380919703CF
:100A800090919803A0919903B0919A030197A109BD
:100A9000B1098093970390939803A0939903B0931F
:100AA0009A03892B8A2B8B2B99F0FF91EF91BF91A1
:100AB000AF919F918F917F916F915F914F913F91F6
:100AC0002F910F900BBE0F900FBE0F901F90189597
:100AD0000E9427058091060190910701A0910801CD
:100AE000B09109018093970390939803A093990381
:100AF000B0939A03DACF6093060170930701809355
:100B00000801909309016093970370939803809371
:100B1000990390939A030895EAE7F0E08081806E4C
:100B200080830895209178003091790030932404D7
:100B30002093230481E090E02D3B324010F090E0C0
:100B400080E00895CF93DF9300D000D000D0CDB7E0
:100B5000DEB78D839E830E94E60180911B049091F5
:100B60001C04019709F45AC08D819E81009751F1B0
:100B7000059789F18D819E8101969E838D83AD813C
:100B8000BE81AB2B51F11092200410921F048D8175
:100B90009E8101970397E0F58091260190912701AE
:100BA000A0912801B091290189839A83AB83BC83EA
:100BB000BC01CD010E940904ED81FE81E050FF4F90
:100BC000808112C00E949205892BC9F681E090E0D5
:100BD0009E838D83D8CF1E821D8281E090E090930A
:100BE000200480931F0480E068E2681B8AE00E9472
:100BF000BA0261E088E50E9430028D819E812696CE
:100C00000FB6F894DEBF0FBECDBFDF91CF91089530
:100C100060E070E0CB010E940904CECF1E821D82ED
:100C2000ECCF209178003091790030932404209308
:100C3000230481E090E02C32314010F490E080E019
:100C4000089560E080E090E00E940D0B08950E94FE
:100C5000E60165E08DE00E94BA0262E084E40E9451
:100C6000300261E089E40E94300261E08EE40E947B
:100C7000300261E08FE40E94300262E080E20E9474
:100C8000300262E082E50E94300261E085E50E9468
:100C9000300261E08EE40E9430026BE18CE00E9441
:100CA000BA0261E086E891E00E94A80268E284E16D
:100CB0000E94BA0261E089E50E94300261E080E2B0
:100CC0000E94300261E089E50E94300261E089E51E
:100CD0000E94300261E080E20E94300261E088E51B
:100CE0000E94300261E080E20E94300261E089E50A
:100CF0000E94300208950E94E6016AE087E00E94A7
:100D0000BA0262E087E40E94300261E081E40E945E
:100D1000300261E08DE40E94300261E085E40E94CF
:100D2000300262E080E20E94300262E08FE40E94C2
:100D3000300261E086E50E94300261E085E40E94B5
:100D4000300261E082E50E9430026DE181E10E94A3
:100D5000BA0261E082E991E00E94A80268E28EE1B5
:100D60000E94BA0261E088E50E94300261E080E200
:100D70000E94300261E089E50E94300208950E94DD
:100D8000E6016AE087E00E94BA0262E087E40E941E
:100D9000300261E081E40E94300261E08DE40E9453
:100DA000300261E085E40E94300262E080E20E944D
:100DB000300262E080E50E94300261E081E40E943E
:100DC000300261E083E50E94300261E083E50E9429
:100DD00030026DE181E10E94BA0261E082E991E0B6
:100DE0000E94A80268E28EE10E94BA0261E088E5F2
:100DF0000E94300261E080E20E94300261E089E5F9
:100E00000E94300208951F93CF93DF93C82FD92FEC
:100E100010B11071C730D10508F07DC0FE01EF5D43
:100E2000F44F0C946809C1E0D0E011117AC0C430CD
:100E3000D10509F49EC00CF079C0C230D10509F487
:100E400093C0C330D10509F0A6C081E090E0909333
:100E50001C0480931B0410922204109221040E940F
:100E60007B0699C010929C0381E090E090931C0453
:100E700080931B0490932204809321049093260472
:100E8000809325049093200480931F0460E070E019
:100E9000CB010E94090480E0853040F4E82FF0E0A7
:100EA000E25DFE4F9FEF90838F5FF6CFC1E0D0E011
:100EB000BCCF0E9427060E949205892B09F0B5CF6E
:100EC000C2E0D0E0B2CF8091210490912204892B1E
:100ED00029F18091250490912604892B09F0A5CF52
:100EE000C4E0D0E0A2CF0E949205892B09F09DCFEB
:100EF000C5E0D0E09ACF0E949205892B09F095CFEA
:100F0000C5E0D0E092CF0E949205892B09F48DCFE5
:100F1000C6E0D0E08ACFD0E0C0E087CFC3E0D0E029
:100F200084CF0E942106C6E0D0E003C0C630D105C0
:100F300091F510929C0381E090E090931C048093C3
:100F40001B049093220480932104909326048093A1
:100F500025049093200480931F0460E070E0CB018F
:100F60000E94090480E015C010921C0410921B041A
:100F700012C081E090E090931C0480931B040E94B7
:100F8000BF0609C0E82FF0E0E25DFE4F9FEF9083BF
:100F90008F5F8530B8F3CE01DF91CF911F91089517
:100FA000282F392FC9010197C29730F4F901EE5A61
:100FB000FE4F8081813059F0C9010696C29730F406
:100FC000275A3E4FF90180818130A9F00895809120
:100FD0001F0490912004892B31F480919C038F5F32
:100FE00080939C03E9CF1092220410922104E4CF55
:100FF0002FE42083089590E080E08530910534F758
:10100000FC01E25DFE4F2081222394F30196F5CF8F
:10101000CF93DF93C82FD92F80911B0490911C048C
:101020000197B9F0C233D10524F010922604109232
:101030002504CE010E94D007DD2344F0C233D10540
:101040005CF4CE010196DF91CF910895CE01019617
:10105000FACF8AEF9FEFF7CFCE01F5CFCF93DF9393
:10106000C82FD92F1C161D0664F468E20E94BA022C
:1010700061E089E50E943002CE010597DF91CF91B2
:1010800008958FEF9FEFFACF0F931F93CF93DF93C6
:1010900080911B0490911C04019799F0D0E0C0E06E
:1010A000C530D10574F48E01025D1E4FF8018081B8
:1010B000082E000C990B0E942E08F80180832196BF
:1010C000EFCF90E080E0DF91CF911F910F910895D5
:1010D000CDB7DEB72C970FB6F894DEBF0FBECDBFED
:1010E00011B812B88FEF84B915B887B918B88AB992
:1010F0001BB80E948C050E940A030E948E010E9468
:10110000EF046AE070E080E090E00E947B050E94BE
:1011100000058CE0E1E4F1E0DE01119601900D9212
:101120008A95E1F7E9EDF3E01182108282E390E025
:10113000A0E0B0E082839383A483B5838683978302
:10114000A087B18722EA35E033872287EDECF3E010
:101150002AEF3FEF3183208344E650E060E070E007
:101160004283538364837583468357836087718783
:1011700028E038E033872287E1ECF3E01182108227
:1011800082839383A483B58386839783A087B18763
:1011900024E438E033872287E5EBF3E01182108204
:1011A00082839383A483B58386839783A087B18743
:1011B00023E037E033872287E9EAF3E011821082E7
:1011C00082839383A483B58386839783A087B18723
:1011D0002CE533E033872287EDE9F3E011821082BA
:1011E00082839383A483B58386839783A087B18703
:1011F0008FEB94E0938782875CC041E060E0802FB2
:101200000E94050241E06FE2802F0E9405020F5FFD
:101210001F4F033511058CF30E94BF02F12CE12C06
:101220000FC0F80186819781A085B1850A96A11D1E
:10123000B11D86839783A087B187FFEFEF1AFF0A5E
:1012400086E0E816F1046CF5F701EE0FFF1F81E070
:1012500090E08C0F9D1FE80FF91F00811181D801CC
:1012600016964D915D916D917C91199712968D9185
:101270009D910D90BC91A02D481759076A077B07D7
:1012800080F2D8011A96ED91FC911B978D919C915B
:101290000995F80191838083168217821086118642
:1012A000C0CF0E94BF0280919B038823E1F310927C
:1012B0009B0310E000E0ADCF991B79E004C0991FBB
:1012C000961708F0961B881F7A95C9F780950895A0
:1012D000EE0FFF1F0024001C0BBE0790F691E02DBF
:1012E00009940E941E0A08F481E008950E948A0968
:1012F0000C94590A0E94520A58F00E944B0A40F07E
:1013000029F45F3F29F00C94420A51110C948D0A84
:101310000C94480A0E946A0A68F39923B1F3552392
:1013200091F3951B550BBB27AA27621773078407F8
:1013300038F09F5F5F4F220F331F441FAA1FA9F38E
:1013400035D00E2E3AF0E0E832D091505040E6957C
:10135000001CCAF72BD0FE2F29D0660F771F881FDD
:10136000BB1F261737074807AB07B0E809F0BB0BD0
:10137000802DBF01FF2793585F4F3AF09E3F5105E4
:1013800078F00C94420A0C948D0A5F3FE4F3983E87
:10139000D4F3869577956795B795F7959F5FC9F7CD
:1013A000880F911D9695879597F90895E1E0660F4E
:1013B000771F881FBB1F621773078407BA0720F0C7
:1013C000621B730B840BBA0BEE1F88F7E095089530
:1013D0000E94EF096894B1110C948D0A08950E943F
:1013E000720A88F09F5798F0B92F9927B751B0F03B
:1013F000E1F0660F771F881F991F1AF0BA95C9F799
:1014000014C0B13091F00E948C0AB1E008950C94A0
:101410008C0A672F782F8827B85F39F0B93FCCF353
:10142000869577956795B395D9F73EF49095809515
:10143000709561957F4F8F4F9F4F0895990F0008CA
:10144000550FAA0BE0E8FEEF16161706E807F90796
:10145000C0F012161306E407F50798F0621B730B31
:10146000840B950B39F40A2661F0232B242B252BB2
:1014700021F408950A2609F4A140A6958FEF811D55
:10148000811D089597F99F6780E870E060E00895F6
:101490009FEF80EC089500240A941616170618068C
:1014A0000906089500240A94121613061406050668
:1014B0000895092E0394000C11F4882352F0BB0FF9
:1014C00040F4BF2B11F460FF04C06F5F7F4F8F4F5C
:1014D0009F4F089557FD9058440F551F59F05F3F97
:1014E00071F04795880F97FB991F61F09F3F79F046
:1014F00087950895121613061406551FF2CF4695C8
:10150000F1DF08C0161617061806991FF1CF869549
:101510007105610508940895E894BB27662777272D
:10152000CB0197F908950E941E0A08F48FEF0895E1
:101530000E94AB0A0C94590A0E944B0A38F00E9490
:10154000520A20F0952311F00C94420A0C94480A98
:1015500011240C948D0A0E946A0A70F3959FC1F3BE
:10156000950F50E0551F629FF001729FBB27F00D51
:10157000B11D639FAA27F00DB11DAA1F649F6627A6
:10158000B00DA11D661F829F2227B00DA11D621FF5
:10159000739FB00DA11D621F839FA00D611D221FAF
:1015A000749F3327A00D611D231F849F600D211D93
:1015B000822F762F6A2F11249F5750409AF0F1F016
:1015C00088234AF0EE0FFF1FBB1F661F771F881F7F
:1015D00091505040A9F79E3F510580F00C94420A6B
:1015E0000C948D0A5F3FE4F3983ED4F3869577958B
:1015F0006795B795F795E7959F5FC1F7FE2B880F25
:10160000911D9695879597F90895F999FECF92BD0A
:1016100081BDF89A992780B50895262FF999FECFB4
:1016200092BD81BDF89A019700B4021639F01FBA35
:1016300020BD0FB6F894FA9AF99A0FBE0895F8945F
:10164000FFCF32075907630773077B078307130729
:1016500064050A0F0A05010000007B14E94300003D
:10166000DC4366A6CF430000DC4366A6CF43B8FE4A
:10167000B84300000000A4D082435CCF0243FFFFC8
:10168000FFFFFF00000002000000004A030000000E
:1016900000D903CD03C103B503A9039D034F2C015A
:1016A000BC02040100000000000100000000000175
:1016B0000000000000000100000001000000010027
:1016C0000000000100000001000000000001000017
:1016D000000000000032555020746F207374617256
:0C16E0007400524553544152543F200006
:00000001FF
