:100000000C9436010C9455010C9455010C94550137
:100010000C9455010C9455010C9455010C94550108
:100020000C9455010C9455010C9455010C945501F8
:100030000C9455010C9455010C9455010C945501E8
:100040000C9455010C9455010C9455010C945501D8
:100050000C9455010C9455010C9455010C945501C8
:100060000C9455010C9455010C9455010C945501B8
:100070000C9455010C9455010C9455010C945501A8
:100080000C9455010C9455010C945501000000008E
:100090000000005F00000007000700147F147F14B9
:1000A000242A7F2A122313086462364955225000FD
:1000B00005030000001C2241000041221C0014081E
:1000C0003E081408083E08080050300000080808E0
:1000D0000808006060000020100804023E514945F5
:1000E0003E00427F400042615149462141454B312B
:1000F0001814127F1027454545393C4A49493001BB
:10010000710905033649494936064949291E003611
:100110003600000056360000081422410014141462
:100120001414004122140802015109063249794190
:100130003E7E1111117E7F494949363E414141229F
:100140007F4141221C7F494949417F090909013EFC
:100150004149497A7F0808087F00417F41002040DB
:10016000413F017F081422417F404040407F020C04
:10017000027F7F0408107F3E4141413E7F0909090B
:10018000063E4151215E7F091929464649494931B8
:1001900001017F01013F4040403F1F2040201F3FA1
:1001A0004038403F63140814630708700807615122
:1001B000494543007F4141000204081020004141AD
:1001C0007F0004020102044040404040000102045C
:1001D0000020545454787F484444383844444420E0
:1001E000384444487F3854545418087E0901020C9E
:1001F0005252523E7F0804047800447D4000204063
:10020000443D007F1028440000417F40007C0418DA
:1002100004787C0804047838444444387C1414146A
:1002200008081414187C7C0804040848545454200A
:10023000043F4440203C4040207C1C2040201C3C8B
:100240004030403C44281028440C5050503C4464FA
:10025000544C44000836410000007F000000413645
:1002600008001008081008000000000011241FBE3C
:10027000CFEFD0E4DEBFCDBF11E0A0E0B1E0E6EA11
:10028000FBE000E00BBF02C007900D92A431B10764
:10029000D9F723E0A4E1B1E001C01D92A232B20778
:1002A000E1F70E94A4020C94D1050C940000CF93B6
:1002B000C82F8A3051F09091C00095FFFCCFC093B9
:1002C000C60090E080E0CF9108958DE00E94570134
:1002D000F2CF0F931F93CF93DF9300D000D000D0C5
:1002E000CDB7DEB7062F172F8E839D838091140123
:1002F00090911501A0911601B091170189839A83FD
:10030000AB83BC83262F372F4E815D81BC01CD018D
:100310000E943D048823F1F120E030E0A901098327
:100320001A839E819B83AD81AC8369817A818B81A5
:100330009C810E943D04811138C0E1E9F0E0808198
:100340008870808328E539E344E75FE309831A83F3
:10035000BE81BB838D818C8369817A818B819C81F5
:100360000E943D0488233CF58FEF9FEF9093990006
:10037000809398001092950010929400402F512F76
:100380006E817D8140931401509315016093160195
:100390007093170126960FB6F894DEBF0FBECDBF3F
:1003A000DF91CF911F910F910895E1E9F0E08081F5
:1003B00083608083C7CF20E034E244EF56E40983B2
:1003C0001A839E819B83AD81AC8369817A818B8105
:1003D0009C810E945F0518162CF4109299001092CF
:1003E0009800C8CF20E030E040E053E409831A834E
:1003F000BE81BB838D818C8369817A818B819C8155
:100400000E946405262F372F482F592F60E074E291
:1004100084EF9AE40E94420469837A838B839C83ED
:1004200069817A818B819C810E94B404462F572F69
:100430004150510950939900409398009BCF80E41C
:10044000809390008BE08093910060E070E0CB019E
:100450000E946901089510929000109291000895F1
:10046000EAE7F0E08081806E808308952091780033
:100470003091790030931F0320931E0381E090E0B8
:100480002D3B324010F090E080E0089520917800FC
:100490003091790030931F0320931E0381E090E098
:1004A0002C32314010F490E080E008951F93CF93F8
:1004B000DF93C82FD92F16B11170C230D10561F169
:1004C0004CF0C330D105D9F0C430D10569F590E0C6
:1004D00080E007C0209719F1C130D10519F583E0FC
:1004E00090E0112349F18230910519F18430910592
:1004F00029F18130910521F521E025B921C00E9423
:100500003602892B19F481E090E0EBCF0E9446027D
:10051000892B61F0CE01E5CF83E090E0E2CF83E06C
:1005200090E0DFCFCE01DDCFCE01DBCF82E090E0E7
:10053000D8CF22E025B904C084E090E021E025B9BD
:10054000DF91CF911F91089511B88FEF82B917B83D
:1005500088B984B915B88AB91BB882E085B9FDCFCE
:1005600095B19D7F95B9662329F095B1986095B9AD
:1005700090E00EC095B1977F95B9FACF25B12F7E47
:1005800025B925B1206225B925B12F7D25B99F5FF9
:10059000983088F447E050E0491B5109282F30E09B
:1005A00002C0359527954A95E2F720FFE7CF25B1A0
:1005B000206125B9E6CF85B1826085B9089560E0F4
:1005C0000E94B002089561E00E94B0020895CF93A6
:1005D000DF9384B1826084B984B1846084B984B1CA
:1005E000886084B984B1806184B984B1806284B93F
:1005F00085B1846085B985B1826085B983EC99E065
:100600000197F1F700C0000085B18B7F85B98BE5BC
:1006100094E40197F1F700C0000085B1846085B9CA
:1006200085B18D7F85B981E20E94DF0283E10E945E
:10063000DF0286E00E94DF0282EC0E94DF0280E29D
:100640000E94DF0289E00E94DF0280E80E94DF0250
:1006500080E40E94DF02D0E0C0E0C83F91E0D9070B
:1006600028F480E00E94E3022196F7CF88E00E9400
:10067000DF028CE00E94DF02DF91CF91089580E8D5
:100680000E94DF0280E40E94DF02109210031092A9
:10069000110390E080E0883F21E0920730F4FC01F4
:1006A000E85EFE4F10820196F6CF0895882321F070
:1006B00080E20E94DF02089584E2FBCF262F269578
:1006C0002695269590E034E5239F800D911D1124F9
:1006D000442379F0677021E030E002C0220F331F1D
:1006E0006A95E2F7FC01E85EFE4F8081822B8083F1
:1006F0000895677021E030E002C0220F331F6A9531
:10070000E2F7FC01E85EFE4F2095808128232083DC
:100710000895EF92FF920F931F93CF93DF93E82EEC
:10072000062FF12C38C06091110380911003610FE6
:1007300041E08F0D0E945E031F5FCE01880F991F5D
:10074000880F991F880F991F8C1B9D0B181719066E
:100750000CF5EE2D0E2C000CFF0BB0978F2D602F9B
:100760000E9431049F01220F331F220F331FE20F1B
:10077000F31FE80FF11DE457FF4FE491F0E0812FE4
:100780000E94310402C0F595E7958A95E2F7E0FFF3
:10079000D3CFC9CFF394C02FD0E0CE01880F991FDB
:1007A000880F991F8C0F9D1FF816190614F410E07E
:1007B000C4CFE0E1F3E0802F880F880F800F908195
:1007C000890F8F5F8083843568F010921003E1E118
:1007D000F3E0802F880F880F880F801B9081890F8E
:1007E0008F5F808380911103803320F0109210037B
:1007F00010921103DF91CF911F910F91FF90EF9015
:1008000008951F93CF93DF93C82FD92F162F888178
:10081000882329F02196612F0E948903F8CFDF9168
:10082000CF911F9108958093100360931103089551
:10083000CF93DF9380E80E94DF0280E40E94DF0212
:10084000D0E0C0E0C83F81E0D80740F4FE01E85E98
:10085000FE4F80810E94E3022196F4CFDF91CF9179
:100860000895991B79E004C0991F961708F0961B0C
:10087000881F7A95C9F7809508950E94EA0408F4C4
:1008800081E008950E9456040C9425050E941E05DF
:1008900058F00E94170540F029F45F3F29F00C94AE
:1008A0000E0551110C9459050C9414050E9436053F
:1008B00068F39923B1F3552391F3951B550BBB278F
:1008C000AA2762177307840738F09F5F5F4F220FD4
:1008D000331F441FAA1FA9F335D00E2E3AF0E0E8CB
:1008E00032D091505040E695001CCAF72BD0FE2F15
:1008F00029D0660F771F881FBB1F261737074807A9
:10090000AB07B0E809F0BB0B802DBF01FF27935860
:100910005F4F3AF09E3F510578F00C940E050C9411
:1009200059055F3FE4F3983ED4F386957795679534
:10093000B795F7959F5FC9F7880F911D9695879595
:1009400097F90895E1E0660F771F881FBB1F6217B4
:1009500073078407BA0720F0621B730B840BBA0B72
:10096000EE1F88F7E09508950E94BB046894B111CA
:100970000C94590508950E943E0588F09F5798F001
:10098000B92F9927B751B0F0E1F0660F771F881F94
:10099000991F1AF0BA95C9F714C0B13091F00E94AE
:1009A0005805B1E008950C945805672F782F8827D3
:1009B000B85F39F0B93FCCF3869577956795B395D5
:1009C000D9F73EF490958095709561957F4F8F4F44
:1009D0009F4F0895990F0008550FAA0BE0E8FEEF0E
:1009E00016161706E807F907C0F012161306E407F3
:1009F000F50798F0621B730B840B950B39F40A26EC
:100A000061F0232B242B252B21F408950A2609F4C9
:100A1000A140A6958FEF811D811D089597F99F67CD
:100A200080E870E060E008959FEF80EC0895002476
:100A30000A941616170618060906089500240A9443
:100A400012161306140605060895092E0394000CC9
:100A500011F4882352F0BB0F40F4BF2B11F460FF58
:100A600004C06F5F7F4F8F4F9F4F089557FD905881
:100A7000440F551F59F05F3F71F04795880F97FB62
:100A8000991F61F09F3F79F087950895121613061C
:100A90001406551FF2CF4695F1DF08C0161617064B
:100AA0001806991FF1CF8695710561050894089580
:100AB000E894BB2766277727CB0197F908950E9412
:100AC000EA0408F48FEF08950E9477050C94250539
:100AD0000E94170538F00E941E0520F0952311F0A2
:100AE0000C940E050C94140511240C9459050E94C5
:100AF000360570F3959FC1F3950F50E0551F629F27
:100B0000F001729FBB27F00DB11D639FAA27F00D66
:100B1000B11DAA1F649F6627B00DA11D661F829F8D
:100B20002227B00DA11D621F739FB00DA11D621F72
:100B3000839FA00D611D221F749F3327A00D611D8F
:100B4000231F849F600D211D822F762F6A2F112471
:100B50009F5750409AF0F1F088234AF0EE0FFF1FA4
:100B6000BB1F661F771F881F91505040A9F79E3FFB
:100B7000510580F00C940E050C9459055F3FE4F389
:100B8000983ED4F3869577956795B795F795E79551
:100B90009F5FC1F7FE2B880F911D9695879597F95A
:060BA0000895F894FFCF58
:100BA60000000002000000005701000000002C01B8
:040BB600BC0201007C
:00000001FF
