:100000000C9436010C9455010C9455010C94550137
:100010000C9455010C9455010C9455010C94550108
:100020000C9455010C9455010C9455010C945501F8
:100030000C9455010C9475040C9455010C945501C5
:100040000C9455010C9455010C9455010C945501D8
:100050000C9455010C9455010C9455010C945501C8
:100060000C9455010C9455010C9455010C945501B8
:100070000C9455010C9455010C9455010C945501A8
:100080000C9455010C9455010C945501000000008E
:100090000000005F00000007000700147F147F14B9
:1000A000242A7F2A122313086462364955225000FD
:1000B00005030000001C2241000041221C0014081E
:1000C0003E081408083E08080050300000080808E0
:1000D0000808006060000020100804023E514945F5
:1000E0003E00427F400042615149462141454B312B
:1000F0001814127F1027454545393C4A49493001BB
:10010000710905033649494936064949291E003611
:100110003600000056360000081422410014141462
:100120001414004122140802015109063249794190
:100130003E7E1111117E7F494949363E414141229F
:100140007F4141221C7F494949417F090909013EFC
:100150004149497A7F0808087F00417F41002040DB
:10016000413F017F081422417F404040407F020C04
:10017000027F7F0408107F3E4141413E7F0909090B
:10018000063E4151215E7F091929464649494931B8
:1001900001017F01013F4040403F1F2040201F3FA1
:1001A0004038403F58773FFD561810FF080E615108
:1001B000494543007F4141000204081020004141AD
:1001C0007F0004020102044040404040000102045C
:1001D0000020545454787F484444383844444420E0
:1001E000384444487F3854545418087E0901020C9E
:1001F0005252523E7F0804047800447D4000204063
:10020000443D007F1028440000417F40007C0418DA
:1002100004787C0804047838444444387C1414146A
:1002200008081414187C7C0804040848545454200A
:10023000043F4440203C4040207C1C2040201C3C8B
:100240004030403C44281028440C5050503C4464FA
:10025000544C44000836410000007F000000413645
:1002600008001008081008000000000011241FBE3C
:10027000CFEFD0E4DEBFCDBF11E0A0E0B1E0EEE60D
:10028000F1E100E00BBF02C007900D92A037B1076B
:10029000D9F723E0A0E7B1E001C01D92AE38B20764
:1002A000E1F70E9443060C94B5080C94000095B148
:1002B0009D7F95B9662329F095B1986095B990E036
:1002C0000EC095B1977F95B9FACF25B12F7E25B98C
:1002D00025B1206225B925B12F7D25B99F5F9830C2
:1002E00088F447E050E0491B5109282F30E002C054
:1002F000359527954A95E2F720FFE7CF25B1206194
:1003000025B9E6CF85B1826085B9089560E00E9485
:100310005701089561E00E9457010895CF93DF933C
:1003200084B1826084B984B1846084B984B1886006
:1003300084B984B1806184B984B1806284B985B1A3
:10034000846085B985B1826085B983EC99E00197B5
:10035000F1F700C0000085B18B7F85B98BE594E48F
:100360000197F1F700C0000085B1846085B985B1BF
:100370008D7F85B981E20E94860183E10E9486011A
:1003800086E00E94860182EC0E94860180E20E9443
:10039000860189E00E94860180E80E94860180E44F
:1003A0000E948601D0E0C0E0C83F91E0D90728F460
:1003B00080E00E948A012196F7CF88E00E948601A2
:1003C0008CE00E948601DF91CF91089580E80E9421
:1003D000860180E40E9486011092680310926903EE
:1003E00090E080E0883F21E0920730F4FC01E05982
:1003F000FE4F10820196F6CF0895882321F080E207
:100400000E948601089584E2FBCF262F269526952B
:10041000269590E034E5239F800D911D11244423FF
:1004200079F0677021E030E002C0220F331F6A9537
:10043000E2F7FC01E059FE4F8081822B8083089512
:10044000677021E030E002C0220F331F6A95E2F7A7
:10045000FC01E059FE4F20958081282320830895D8
:10046000EF92FF920F931F93CF93DF93E82E062F07
:10047000F12C38C06091690380916803610F41E0FD
:100480008F0D0E9405021F5FCE01880F991F880FF4
:10049000991F880F991F8C1B9D0B181719060CF5B7
:1004A000EE2D0E2C000CFF0BB0978F2D602F0E94AD
:1004B000F2069F01220F331F220F331FE20FF31F9B
:1004C000E80FF11DE457FF4FE491F0E0812F0E9407
:1004D000F20602C0F595E7958A95E2F7E0FFD3CFE3
:1004E000C9CFF394C02FD0E0CE01880F991F880F99
:1004F000991F8C0F9D1FF816190614F410E0C4CF35
:10050000E8E6F3E0802F880F880F800F9081890F35
:100510008F5F8083843568F010926803E9E6F3E02A
:10052000802F880F880F880F801B9081890F8F5F25
:10053000808380916903803320F0109268031092C9
:100540006903DF91CF911F910F91FF90EF90089574
:100550001F93CF93DF93C82FD92F162F888188231D
:1005600029F02196612F0E943002F8CFDF91CF91C0
:100570001F91089580936803609369030895CF9352
:10058000DF9380E80E94860180E40E948601D0E02B
:10059000C0E0C83F81E0D80740F4FE01E059FE4FBB
:1005A00080810E948A012196F4CFDF91CF91089536
:1005B000482F592F30E020E002C02F5F3F4F241713
:1005C00035074CF490E080E0873063E09607ACF7A5
:1005D00000000196F9CF08959BB19F7B9BB988B924
:1005E0008BB180688BB900008BB18F778BB982E0BB
:1005F00090E00E94D802089581E00E94EC020895E4
:10060000813120F481580E94EC02089581550E94A6
:10061000EC02089584E690E00E94D80288E30E94EC
:10062000EC0286E00E94EC028FE00E94EC0281E086
:100630000E94EC028AE090E00E94D80208959BB1EB
:1006400090649BB988B98BB180688BB900008BB17D
:100650008F778BB981E090E00E94D80208950F93C4
:100660001F93CF93DF93182FC62FD72F0E94FC0222
:100670008881882351F001E0010F812F0E9400033F
:1006800089910E941F03102FF3CFDF91CF911F910B
:100690000F910895CF93C82F8A3051F09091C000E8
:1006A00095FFFCCFC093C60090E080E0CF91089505
:1006B0008DE00E944A03F2CFCF93DF93C82FD92F4A
:1006C00080E090E00E949B0880936A03209721F4C9
:1006D00090910001891304C0CE01DF91CF9108955C
:1006E0006FE271E081E00E942F0389E00E94000325
:1006F00080916A0390E0C0960E941F0380916A0374
:1007000080930001E9CF0F931F93CF93DF9300D025
:1007100000D000D0CDB7DEB7062F172F8E839D8374
:100720008091880390918903A0918A03B0918B03F3
:1007300089839A83AB83BC83262F372F4E815D81BB
:10074000BC01CD010E94FE068823F1F120E030E0DB
:10075000A90109831A839E819B83AD81AC83698142
:100760007A818B819C810E94FE06811138C0E1E96B
:10077000F0E080818870808328E539E344E75FE317
:1007800009831A83BE81BB838D818C8369817A81C1
:100790008B819C810E94FE0688233CF58FEF9FEFA2
:1007A0009093990080939800109295001092940075
:1007B000402F512F6E817D81409388035093890390
:1007C00060938A0370938B0326960FB6F894DEBF6E
:1007D0000FBECDBFDF91CF911F910F910895E1E939
:1007E000F0E0808183608083C7CF20E034E244EF73
:1007F00056E409831A839E819B83AD81AC83698112
:100800007A818B819C810E94200818162CF410920A
:10081000990010929800C8CF20E030E040E053E407
:1008200009831A83BE81BB838D818C8369817A8120
:100830008B819C810E942508262F372F482F592F06
:1008400060E074E284EF9AE40E94030769837A838C
:100850008B839C8369817A818B819C810E9475073F
:10086000462F572F415051095093990040939800BB
:100870009BCF80E4809390008BE08093910060E0B8
:1008800070E0CB010E9483030895109290001092B3
:10089000910008958BE0809381008DE790E0909324
:1008A00089008093880082E080936F001092850019
:1008B000109284008091010190910201A0910301A6
:1008C000B091040180936B0390936C03A0936D032C
:1008D000B0936E038FB780688FBF08951092810028
:1008E000089581E080936F0308951F920F920FB6D1
:1008F0000F9211240BB60F922F933F934F935F9358
:100900006F937F938F939F93AF93BF93EF93FF93D7
:1009100080916B0390916C03A0916D03B0916E0375
:100920000197A109B10980936B0390936C03A09385
:100930006D03B0936E03892B8A2B8B2B99F0FF915B
:10094000EF91BF91AF919F918F917F916F915F9147
:100950004F913F912F910F900BBE0F900FBE0F90B4
:100960001F9018950E9471048091010190910201DD
:10097000A0910301B091040180936B0390936C03E9
:10098000A0936D03B0936E03DACF6093010170936F
:100990000201809303019093040160936B037093B1
:1009A0006C0380936D0390936E030895EAE7F0E083
:1009B0008081806E80830895209178003091790045
:1009C00030938D0320938C0381E090E02D3B3240E7
:1009D00010F090E080E00895209178003091790047
:1009E00030938D0320938C0381E090E02C323140D2
:1009F00010F490E080E0089560E080E00E94BA0288
:100A000062E084E40E94300261E089E40E943002E6
:100A100061E08EE40E94300261E08FE40E943002C7
:100A200064E18AE00E94BA0262E082E50E9430023C
:100A300061E085E50E94300261E08EE40E943002B0
:100A4000089565E085E00E94BA0262E087E40E94B2
:100A5000300261E081E40E94300261E08DE40E9496
:100A6000300261E085E40E94300263E28FE00E9480
:100A7000BA0262E08FE40E94300261E086E50E94E3
:100A8000300261E085E40E94300261E082E50E946C
:100A9000300260E083E20E94BA0261E088E391E004
:100AA0000E94A8020895CF93DF93D82FC92F63E443
:100AB00071E00E949208892B51F169E471E08D2F59
:100AC0009C2F0E949208892B69F16FE471E08D2FB1
:100AD0009C2F0E949208892B79F169E571E08D2F96
:100AE0009C2F0E949208892B89F163E671E08D2F7B
:100AF0009C2F0E949208892B99F56AE080E00E9461
:100B0000BA0261E089E691E00E94A80208C060E0B4
:100B100080E00E94BA0261E089E50E943002DF9124
:100B2000CF9108956AE080E00E94BA0261E08CE40F
:100B300091E00E94A802F3CF6AE080E00E94BA022E
:100B400061E084E591E00E94A802E9CF6AE080E0DC
:100B50000E94BA0261E08EE591E00E94A802DFCF18
:100B60000E94E601DCCFCF93DF9300D000D0CDB759
:100B7000DEB7282F392F80B1807123303105F1F095
:100B800054F408F04BC060E070E0CB010E94830396
:100B900083E090E00CC02430310509F03FC0882389
:100BA00089F189E591E00E94530584E090E00F907F
:100BB0000F900F900F90DF91CF9108958111F1CF99
:100BC0000E94DC04892B69F480E090E00E949B087D
:100BD000893058F189E491E00E94530581E090E06A
:100BE000E6CF0E94EC04892B71F680E090E00E9431
:100BF0009B08811131C08FE491E00E94530582E08F
:100C000090E0D5CF60E080E090E00E94A30883E60A
:100C100091E00E94530585E090E0C9CF83E491E024
:100C20000E94530590E080E0C2CF80911501909121
:100C30001601A0911701B0911801BC01CD010E94CD
:100C4000830380E090E00E949B0861E0680F80E0F1
:100C500090E00E94A308BECF8091190190911A01E3
:100C6000A0911B01B0911C01BC01CD010E94830326
:100C700080E090E00E949B086FEF680F80E090E0BA
:100C80000E94A308B8CF00D000D0CDB7DEB711B80E
:100C900012B88FEF84B915B887B918B88AB91BB8DC
:100CA000ACE7B3E0BA83A983E0E7F3E0FC83EB832E
:100CB00011961C921E9248EC50E060E070E0129693
:100CC0004D935D936D937C93159716964D935D931D
:100CD0006D937C93199783EB95E01B969C938E9371
:100CE0001A971182108282E390E0A0E0B0E0828344
:100CF0009383A483B58386839783A087B1878CE58C
:100D000093E09387828762E370E080E090E00E9446
:100D1000C5040E944A040E94D6040E940A030E944D
:100D20008E010E9439040E94FC020E94E6010E948A
:100D3000FC0468E287E30E94BA0261E088E50E9451
:100D4000300268E28BE40E94BA0261E089E50E9409
:100D500030020E94BF0244C0F80186819781A085BD
:100D6000B185C296A11DB11D86839783A087B187E7
:100D7000F394F1E0FF1570F1EF2DF0E0EE0FFF1F9F
:100D800081E090E08C0F9D1FE80FF91F0081118119
:100D9000D80116964D915D916D917C91199712969F
:100DA0008D919D910D90BC91A02D481759076A0710
:100DB0007B0790F2D8011A96ED91FC911B978D91CB
:100DC0009C910995F8019183808316821782108681
:100DD0001186C2CF80916F038823E1F310926F03D5
:100DE000F12CC7CF991B79E004C0991F961708F022
:100DF000961B881F7A95C9F7809508950E94AB07C6
:100E000008F481E008950E9417070C94E6070E94F9
:100E1000DF0758F00E94D80740F029F45F3F29F01F
:100E20000C94CF0751110C941A080C94D5070E940A
:100E3000F70768F39923B1F3552391F3951B550BED
:100E4000BB27AA2762177307840738F09F5F5F4F9D
:100E5000220F331F441FAA1FA9F335D00E2E3AF0DC
:100E6000E0E832D091505040E695001CCAF72BD0F4
:100E7000FE2F29D0660F771F881FBB1F2617370745
:100E80004807AB07B0E809F0BB0B802DBF01FF2777
:100E900093585F4F3AF09E3F510578F00C94CF077E
:100EA0000C941A085F3FE4F3983ED4F38695779547
:100EB0006795B795F7959F5FC9F7880F911D969530
:100EC000879597F90895E1E0660F771F881FBB1F8C
:100ED000621773078407BA0720F0621B730B840B39
:100EE000BA0BEE1F88F7E09508950E947C0768947E
:100EF000B1110C941A0808950E94FF0788F09F57BB
:100F000098F0B92F9927B751B0F0E1F0660F771F2D
:100F1000881F991F1AF0BA95C9F714C0B13091F023
:100F20000E941908B1E008950C941908672F782FD2
:100F30008827B85F39F0B93FCCF3869577956795E8
:100F4000B395D9F73EF490958095709561957F4F54
:100F50008F4F9F4F0895990F0008550FAA0BE0E897
:100F6000FEEF16161706E807F907C0F0121613066B
:100F7000E407F50798F0621B730B840B950B39F4AB
:100F80000A2661F0232B242B252B21F408950A2611
:100F900009F4A140A6958FEF811D811D089597F951
:100FA0009F6780E870E060E008959FEF80EC08950F
:100FB00000240A9416161706180609060895002438
:100FC0000A9412161306140605060895092E0394B2
:100FD000000C11F4882352F0BB0F40F4BF2B11F426
:100FE00060FF04C06F5F7F4F8F4F9F4F089557FD85
:100FF0009058440F551F59F05F3F71F04795880F87
:1010000097FB991F61F09F3F79F08795089512161D
:1010100013061406551FF2CF4695F1DF08C01616C9
:1010200017061806991FF1CF86957105610508947A
:101030000895E894BB2766277727CB0197F9089591
:101040000E94AB0708F48FEF08950E9438080C94B3
:10105000E6070E94D80738F00E94DF0720F09523AA
:1010600011F00C94CF070C94D50711240C941A0896
:101070000E94F70770F3959FC1F3950F50E0551F3D
:10108000629FF001729FBB27F00DB11D639FAA27DD
:10109000F00DB11DAA1F649F6627B00DA11D661F2C
:1010A000829F2227B00DA11D621F739FB00DA11D4D
:1010B000621F839FA00D611D221F749F3327A00D07
:1010C000611D231F849F600D211D822F762F6A2FA3
:1010D00011249F5750409AF0F1F088234AF0EE0F08
:1010E000FF1FBB1F661F771F881F91505040A9F735
:1010F0009E3F510580F00C94CF070C941A085F3F77
:10110000E4F3983ED4F3869577956795B795F79570
:10111000E7959F5FC1F7FE2B880F911D96958795E8
:1011200097F90895FB01DC018D9101908019011060
:10113000D9F3990B0895F999FECF92BD81BDF89A24
:10114000992780B50895262FF999FECF92BD81BDCC
:10115000F89A019700B4021639F01FBA20BD0FB6F5
:0E116000F894FA9AF99A0FBE0895F894FFCF0A
:10116E0064010000000000C443B8FEB843719DAE98
:10117E0043A4D0A443A4D082435CCF02430000001A
:10118E0002000000004A03000000002C01BC0253C4
:10119E00636F7265203A20004D6F76652075702062
:1011AE00746F207374617274007570005550006412
:1011BE006F776E00444F574E007761697400574148
:1011CE0049540072657365740052455345540000CE
:00000001FF
